:100000000EC028C039C44EC225C024C023C022C09F
:1000100021C020C01FC01EC01DC01CC01BC0112499
:100020001FBECFE5D2E0DEBFCDBF10E0A0E6B0E05E
:10003000E6E7FFE002C005900D92AA38B107D9F7B4
:1000400020E0AAE8B0E001C01D92AE3CB207E1F7A3
:10005000DBD18FC7D5CF90938F0080938E00D1D402
:1000600060938A0070938B0080938C0090938D0036
:100070000895CF92DF92EF92FF92CF93DF9300D05B
:1000800000D0CDB7DEB7E0918E00F0918F00808177
:100090009181843691055CF00F900F900F900F9036
:1000A000DF91CF91FF90EF90DF90CF907BC160E028
:1000B0008AE890E0B5D46B01E0918E00F0918F005A
:1000C000808191819C01990F440B550B29833A83C0
:1000D0004B835C83CA01B9012DD669837A838B83F4
:1000E0009C8324EA30E74DE950ECB4D669837A83E7
:1000F0008B839C8320E030E04AEF53E41CD5698376
:100100007A838B839C83E3D569837A838B839C83F7
:1001100049815A81C416D50674F05FD18AE890E00F
:100120000F900F900F900F90DF91CF91FF90EF9075
:10013000DF90CF90CAC40F900F900F900F90DF9177
:10014000CF91FF90EF90DF90CF90089507D19093DB
:1001500091008093900047B321E030E0B90102C0E4
:10016000660F771F8A95E2F7CB018095842387BBC2
:1001700088B30090900002C0220F331F0A94E2F768
:10018000282B28BB089586B390E00090900002C011
:10019000959587950A94E2F78095909581700895DA
:1001A000FC01EE0FFF1FE25AFF4F40815181509337
:1001B00093004093920027B381E090E0BC0102C01D
:1001C000660F771F4A95E2F7262B27BB28B30090CE
:1001D000920002C0880F991F0A94E2F7809582234B
:1001E00088BB089528B381E090E00090920002C09F
:1001F000880F991F0A94E2F78095822388BB08959F
:1002000088B321E030E00090920002C0220F331F3B
:100210000A94E2F7822B88BB08957093950060934F
:100220009400BECFE0919400F091950080818823E6
:10023000C1F0E6DF6CE271E080E090E05BD0D2DFFD
:1002400068EC70E080E090E055D0DADF6CE271E0BD
:1002500080E090E04FD0C6DF68EC70E080E090E096
:1002600049C0089570939900609398009093970007
:10027000809396003BC10F931F93CF93E09198001A
:10028000F09199008081882371F0DED2E09198008E
:10029000F09199001082E0919600F0919700118200
:1002A000108274D279D19FD3C82F009196001091FB
:1002B0009700811119C0BDD1F80191838083E0912D
:1002C0009800F0919900A0919600B09197008D91BF
:1002D0009C918436910514F4C23051F481E08083FE
:1002E000CF911F910F910895813049F70DD1E4CF3F
:1002F0001082F6CF8F929F92AF92BF92CF92DF92F1
:10030000EF92FF92CF93DF9300D000D0CDB7DEB74E
:100310006B017C017AD04B015C0177D069837A83D1
:100320008B839C83DC01CB0188199909AA09BB093D
:100330008C159D05AE05BF0578F00F900F900F90BE
:100340000F90DF91CF91FF90EF90DF90CF90BF9013
:10035000AF909F908F9008950000DFCFFC01EE0FCB
:10036000FF1FEE58FF4F808191810895F7DF909332
:100370009B0080939A0097B321E030E0A90101C06F
:10038000440F8A95EAF7892F842B87BB88B30090A6
:100390009A0002C0220F331F0A94E2F72095282307
:1003A00028BB089528B381E090E000909A0002C035
:1003B000880F991F0A94E2F78095822388BB0895DD
:1003C00088B321E030E000909A0002C0220F331F72
:1003D0000A94E2F7822B88BB089588B390E00090DE
:1003E0009A0002C0959587950A94E2F780FDDACFCE
:1003F000E7CF29E130E043E050E066E070E085E0DF
:1004000090E0DDD111D2FECFF4DFCF93DF9300D0A7
:1004100000D0CDB7DEB79FB78FB78F778FBF209152
:100420009D0030919E0040919F005091A000298333
:100430003A834B835C839FBF69817A818B819C81E6
:100440000F900F900F900F90DF91CF91089586B588
:10045000836086BD87B58B7F87BD80B7836080BF93
:1004600080B7837F80BF89EF8EBD8FB780688FBFD5
:1004700089B7806489BF10929D0010929E001092EF
:100480009F001092A00008959FB78FB78F778FBFFE
:1004900010929D0010929E0010929F001092A0005A
:1004A0009FBF08951F921FB61F9211248F939F9391
:1004B000AF93BF931FBC80919D0090919E00A0912F
:1004C0009F00B091A0000196A11DB11D80939D00D9
:1004D00090939E00A0939F00B093A000BF91AF9116
:1004E0009F918F911F901FBE1F9018958AD2609385
:1004F000A3007093A4008093A5009093A60010928F
:10050000A2001092A1000895CF92DF92EF92FF9285
:10051000CF93DF9300D000D0CDB7DEB78091A70096
:100520009091A800843691051CF083EA90E0CDD22A
:1005300062E083EA90E074D26B017A8369838091F0
:10054000A1009091A2009601281B390B293C31058E
:1005500018F083EA90E0B9D289819A810597CCF0AE
:1005600084E690E09093A8008093A700D092A20028
:10057000C092A1008091A7009091A8000F900F90C9
:100580000F900F90DF91CF91FF90EF90DF90CF9081
:10059000089580E590E0E6CF1092A8001092A700A1
:1005A00083EA90E092C2CF93DF9300D000D0CDB722
:1005B000DEB71092B1001092B2001092B300109208
:1005C000B4006CE370E08CD29C01990F440B550B86
:1005D00029833A834B835C8328EE33E040E050E08C
:1005E00069817A818B819C818CD269837A838B83A8
:1005F0009C839ED36093B5007093B6008093B70040
:100600009093B8001092A9001092AA001092AB002B
:100610001092AC001092AD001092AE001092AF009C
:100620001092B0000F900F900F900F90DF91CF912C
:100630000895CF93DF93CDB7DEB728970FB6F89420
:10064000DEBF0FBECDBF20E030E048EC52E4609149
:10065000AD007091AE008091AF009091B000F6D3E4
:1006600087FD08C01092AD001092AE001092AF004E
:100670001092B000CADE6D837E838F8398872D81B0
:100680003E81032E000C440B550B2D833E834F837C
:100690005887CA01B9014ED36D837E838F839887B3
:1006A0002091B1003091B2004091B3005091B4005C
:1006B00041D269837A838B839C8309D369837A834C
:1006C0008B839C836A3F71050CF041C09B01770FBF
:1006D000440B550B29833A834B835C83CA01B901D0
:1006E00029D369837A838B839C832091A9003091DD
:1006F000AA004091AB005091AC001DD269837A836F
:100700008B839C83DC01CB018093A9009093AA008A
:10071000A093AB00B093AC002091B5003091B6002F
:100720004091B7005091B800CD0169D269837A83B6
:100730008B839C8320E030E048EC52E48BD36093C1
:10074000AD007093AE008093AF009093B0002D8108
:100750003E814F8158852093B1003093B200409381
:10076000B3005093B4006091AD007091AE008091E1
:10077000AF009091B000ABD2CB0128960FB6F894A1
:10078000DEBF0FBECDBFDF91CF9108951092AD00B7
:100790001092AE001092AF001092B0001092B10013
:1007A0001092B2001092B3001092B4001092A900FF
:1007B0001092AA001092AB001092AC000895EF9234
:1007C000FF920F931F93CF93DF938B01EA0179017F
:1007D0001092BC001092BB001092BA0021E020934E
:1007E000B900C4DDC801DCDCCE01B0DC8AEB90E0EE
:1007F00032DC69EB70E0C80110DD6CEB70E0CE011B
:100800008FD089EB90E01BD069EB70E08AEB90E031
:1008100029DD8CEB90E0D5D0C701DF91CF911F91FE
:100820000F91FF90EF90BFCE26DD23DCFBDC7FC075
:100830001092BB001092BA001092B90008959093E4
:10084000BE008093BD000895E091BD00F091BE0010
:100850008081882381F078948BB780628BBFAC9ABB
:1008600085B7877E806185BF85B7806285BF8895A3
:1008700085B78F7D85BF08958F938FB78F938BB783
:100880008F7D8BBFAC988F918FBF8F911895CF9331
:10089000DF93C091C400D091C50075DC8883E091DE
:1008A000C400F091C5008081811102C01092BF0088
:1008B000DF91CF910895CF93DF9300D000D0CDB7D3
:1008C000DEB760E080EC90E0ABD069837A838B8305
:1008D0009C83E091C400F091C50089819A81C29700
:1008E00048F481E080830F900F900F900F90DF917C
:1008F000CF91089581E0808382E08093BF00F3CFA1
:1009000042DCE091C400F091C500882339F081E019
:1009100080838093BF0080EC90E0D7C01082089560
:100920007093C5006093C4001092BF000FCCE0919B
:10093000BF00F0E0EE0FFF1FEC57FF4F0190F0817A
:10094000E02D0994CF93DF9300D000D0CDB7DEB770
:1009500061E08AEC90E064D069837A838B839C8326
:10096000653071058105910530F082E08093C70004
:100970001092C60007C0E091C800F091C9008081C4
:100980008823B1F30F900F900F900F90DF91CF91CC
:100990000895E091C800F091C9008081882371F02A
:1009A0008091C700811107C081E08093C70081E07A
:1009B0008093C60008951092C700F9CF8AEC90E0AA
:1009C00084C01092C6009093C9008093C800109212
:1009D000C70017D06093CA007093CB008093CC00FF
:1009E0009093CD000895E091C600F0E0EE0FFF1F58
:1009F000E059FF4F0190F081E02D09958091C700EB
:100A00000895CF93DF9300D000D0CDB7DEB71FDDC0
:100A1000FCDC0F900F900F900F90DF91CF91089515
:100A20000F931F93CF93DF9300D000D00F92CDB7D9
:100A3000DEB78C016D83E9DC69837A838B839C83C9
:100A4000F80180819181A281B38129813A814B8112
:100A50005C81281B390B4A0B5B0B29833A834B8340
:100A60005C833D813323D1F069817A818B819C81C4
:100A70005FD169837A838B839C834D814130E1F41C
:100A800020E030E04AE754E4BAD069837A838B836C
:100A90009C8322D169837A838B839C8369817A8149
:100AA0008B819C810F900F900F900F900F90DF9192
:100AB000CF911F910F91089520E030E64AE657E468
:100AC00069817A818B819C81DFCFCF93DF93EC01A9
:100AD0009CDC688379838A839B83DF91CF9108951F
:100AE0000024552704C0080E591F880F991F00972E
:100AF00029F076956795B8F37105B9F7802D952F94
:100B00000895EE27FF27AA27BB2708C0A20FB31F0F
:100B1000E41FF51F220F331F441F551F969587951D
:100B20007795679598F37040A9F7009799F7BD01FD
:100B3000CF0108955058BB27AA270ED04DC13ED1F2
:100B400030F043D120F031F49F3F11F41EF433C153
:100B50000EF4E095E7FB29C1E92F4FD180F3BA17D6
:100B6000620773078407950718F071F49EF567C153
:100B70000EF4E0950B2EBA2FA02D0B01B9019001B8
:100B80000C01CA01A0011124FF27591B99F0593FFC
:100B900050F4503E68F11A16F040A22F232F342F44
:100BA0004427585FF3CF469537952795A795F04092
:100BB0005395C9F77EF41F16BA0B620B730B840BA7
:100BC000BAF09150A1F0FF0FBB1F661F771F881F5F
:100BD000C2F70EC0BA0F621F731F841F48F48795B7
:100BE00077956795B795F7959E3F08F0B3CF9395A6
:100BF000880F08F09927EE0F9795879508950CD0E8
:100C0000EBC0E3D040F0DAD030F021F45F3F19F0D0
:100C1000CCC0511115C1CFC0F0D098F39923C9F3BE
:100C20005523B1F3951B550BBB27AA2762177307F2
:100C3000840738F09F5F5F4F220F331F441FAA1FA6
:100C4000A9F333D00E2E3AF0E0E830D09150504066
:100C5000E695001CCAF729D0FE2F27D0660F771F14
:100C6000881FBB1F261737074807AB07B0E809F0F6
:100C7000BB0B802DBF01FF2793585F4F2AF09E3F8B
:100C8000510568F092C0DCC05F3FECF3983EDCF3A6
:100C9000869577956795B795F7959F5FC9F7880F04
:100CA000911D9695879597F90895E1E0660F771F56
:100CB000881FBB1F621773078407BA0720F0621BE7
:100CC000730B840BBA0BEE1F88F7E095089504D0E0
:100CD0006894B111B5C0089598D088F09F5790F0EE
:100CE000B92F9927B751A0F0D1F0660F771F881F51
:100CF000991F1AF0BA95C9F712C0B13081F09FD090
:100D0000B1E008959CC0672F782F8827B85F39F02D
:100D1000B93FCCF3869577956795B395D9F73EF4AF
:100D200090958095709561957F4F8F4F9F4F089557
:100D3000E89409C097FB3EF4909580957095619575
:100D40007F4F8F4F9F4F9923A9F0F92F96E9BB272B
:100D50009395F695879577956795B795F111F8CFA7
:100D6000FAF4BB0F11F460FF1BC06F5F7F4F8F4F12
:100D70009F4F16C0882311F096E911C0772321F008
:100D80009EE8872F762F05C0662371F096E8862FA0
:100D900070E060E02AF09A95660F771F881FDAF7F7
:100DA000880F9695879597F9089597F99F6780E83A
:100DB00070E060E008959FEF80EC089500240A94AD
:100DC0001616170618060906089500240A94121626
:100DD0001306140605060895092E0394000C11F459
:100DE000882352F0BB0F40F4BF2B11F460FF04C006
:100DF0006F5F7F4F8F4F9F4F089557FD9058440F5F
:100E0000551F59F05F3F71F04795880F97FB991F69
:100E100061F09F3F79F08795089512161306140626
:100E2000551FF2CF4695F1DF08C0161617061806B3
:100E3000991FF1CF86957105610508940895E8948E
:100E4000BB2766277727CB0197F908956ED008F462
:100E50008FEF08950AD0C0CFB1DF28F0B6DF18F0C9
:100E6000952309F0A2CFA7CFEBCFC7DFA8F3992333
:100E7000D9F35523C9F3950F50E0551FAA27EE2744
:100E8000FF27BB2700240894679520F4E20FF31F87
:100E9000B41F0A1E220F331F441FAA1F6695A9F70D
:100EA000779530F4F30FB41F0A1E121E08F46395F1
:100EB000330F441FAA1F221F769599F7879520F4B8
:100EC000B40F0A1E121E631F440FAA1F221F331FD6
:100ED0008695A9F7862F712D602D11249F575040BC
:100EE0008AF0E1F088234AF0EE0FFF1FBB1F661F58
:100EF000771F881F91505040A9F79E3F510570F011
:100F000054CF9ECF5F3FECF3983EDCF38695779508
:100F10006795B795F795E7959F5FC1F7FE2B880F0B
:100F2000911D9695879597F90895990F0008550F8B
:100F3000AA0BE0E8FEEF16161706E807F907C0F05F
:100F400012161306E407F50798F0621B730B840B67
:100F5000950B39F40A2661F0232B242B252B21F441
:100F600008950A2609F4A140A6958FEF811D811DE1
:060F70000895F894FFCF84
:100F7600FFFF03000400FFFF000001000200FFFF67
:100F8600C904A204FFFF03000400FFFF00000100E4
:0A0F96000200FFFF80045B04470423
:00000001FF
