:100000000EC028C03DC458C225C024C023C022C091
:1000100021C020C01FC01EC01DC01CC01BC0112499
:100020001FBECFE5D2E0DEBFCDBF10E0A0E6B0E05E
:10003000E0EAFFE002C005900D92AA38B107D9F7B7
:1000400020E0AAE8B0E001C01D92A03DB207E1F7B0
:10005000E5D1A4C7D5CF9093910080939000709381
:100060008F0060938E00E2D460938A0070938B00BF
:1000700080938C0090938D000895CF92DF92EF9241
:10008000FF92CF93DF9300D000D0CDB7DEB7E091E1
:100090009000F091910080819181843691053CF42B
:1000A000E0918E00F0918F008081882359F00F90AD
:1000B0000F900F900F90DF91CF91FF90EF90DF9016
:1000C000CF907AC160E08AE890E0BFD46B01E09104
:1000D0009000F0919100808191819C01990F440BD7
:1000E000550B29833A834B835C83CA01B90137D608
:1000F00069837A838B839C8324EA30E74DE950EC53
:10010000BED669837A838B839C8320E030E04AEFFC
:1001100053E426D569837A838B839C83EDD56983E9
:100120007A838B839C8349815A81C416D50674F0E7
:100130005ED18AE890E00F900F900F900F90DF91C2
:10014000CF91FF90EF90DF90CF90D4C40F900F909D
:100150000F900F90DF91CF91FF90EF90DF90CF90B5
:10016000089506D1909393008093920047B321E0C5
:1001700030E0B90102C0660F771F8A95E2F7CB0124
:100180008095842387BB88B30090920002C0220F21
:10019000331F0A94E2F7282B28BB089586B390E01A
:1001A0000090920002C0959587950A94E2F7809599
:1001B000909581700895FC01EE0FFF1FE25AFF4FEA
:1001C00040815181509395004093940027B381E082
:1001D00090E0BC0102C0660F771F4A95E2F7262B1C
:1001E00027BB28B30090940002C0880F991F0A947F
:1001F000E2F78095822388BB089528B381E090E0E0
:100200000090940002C0880F991F0A94E2F780952D
:10021000822388BB089588B321E030E000909400E9
:1002200002C0220F331F0A94E2F7822B88BB089585
:100230007093970060939600BECFE0919600F09186
:10024000970080818823C1F0E6DF6CE271E080E0F6
:1002500090E05AD0D2DF68EC70E080E090E054D0BB
:10026000DADF6CE271E080E090E04ED0C6DF68EC4F
:1002700070E080E090E048C0089570939B00609328
:100280009A0090939900809398003AC10F931F931E
:10029000CF93E0919A00F0919B008081882369F0D0
:1002A000D7D2E0919A00F0919B001082E0919800E3
:1002B000F09199001182108279D1A3D3C82F0091B7
:1002C000980010919900811119C0D6D1F80191833D
:1002D0008083E0919A00F0919B00A0919800B091EA
:1002E00099008D919C918436910514F4C23051F49B
:1002F00081E08083CF911F910F910895813049F75C
:100300000DD1E4CF1082F6CF8F929F92AF92BF9221
:10031000CF92DF92EF92FF92CF93DF9300D000D085
:10032000CDB7DEB76B017C017AD04B015C0177D091
:1003300069837A838B839C83DC01CB0188199909BB
:10034000AA09BB09C816D906EA06FB0678F40F907D
:100350000F900F900F90DF91CF91FF90EF90DF9073
:10036000CF90BF90AF909F908F9008950000DFCF07
:10037000FC01EE0FFF1FEE58FF4F80819181089521
:10038000F7DF90939D0080939C0097B321E030E0CD
:10039000A90101C0440F8A95EAF7892F842B87BBF6
:1003A00088B300909C0002C0220F331F0A94E2F72A
:1003B0002095282328BB089528B381E090E0009081
:1003C0009C0002C0880F991F0A94E2F7809582234F
:1003D00088BB089588B321E030E000909C0002C003
:1003E000220F331F0A94E2F7822B88BB089588B34B
:1003F00090E000909C0002C0959587950A94E2F7E2
:1004000080FDDACFE7CF21E030E043E050E066E066
:1004100070E085E090E0D5D10BD2FECFF4DFCF9332
:10042000DF9300D000D0CDB7DEB79FB78FB78F77FF
:100430008FBF20919F003091A0004091A10050916A
:10044000A20029833A834B835C839FBF69817A81B1
:100450008B819C810F900F900F900F90DF91CF9127
:10046000089586B5836086BD87B58B7F87BD80B7CD
:10047000836080BF80B7837F80BF89EF8EBD8FB7D9
:1004800080688FBF89B7806489BF10929F001092E7
:10049000A0001092A1001092A20008959FB78FB7FC
:1004A0008F778FBF10929F001092A0001092A10032
:1004B0001092A2009FBF08951F921FB61F92112491
:1004C0008F939F93AF93BF931FBC80919F00909198
:1004D000A000A091A100B091A2000196A11DB11DA4
:1004E00080939F009093A000A093A100B093A200DE
:1004F000BF91AF919F918F911F901FBE1F90189534
:1005000095D26093A5007093A6008093A700909366
:10051000A8001092A4001092A3000895CF92DF9239
:10052000EF92FF92CF93DF9300D000D0CDB7DEB72C
:100530008091A9009091AA00843691051CF085EA6B
:1005400090E0D8D262E085EA90E07FD26B017A83B6
:1005500069838091A3009091A4009601281B390B18
:10056000293C310518F085EA90E0C4D289819A814E
:100570000597CCF084E690E09093AA008093A900C0
:10058000D092A400C092A3008091A9009091AA00EB
:100590000F900F900F900F90DF91CF91FF90EF9001
:1005A000DF90CF90089580E590E0E6CF1092AA000A
:1005B0001092A90085EA90E09DC2CF93DF9300D00E
:1005C00000D0CDB7DEB71092B3001092B4001092F5
:1005D000B5001092B6006CE370E097D29C01990FC1
:1005E000440B550B29833A834B835C8328EE33E01D
:1005F00040E050E069817A818B819C8197D2698348
:100600007A838B839C83A9D36093B7007093B800DF
:100610008093B9009093BA001092AB001092AC0096
:100620001092AD001092AE001092AF001092B00088
:100630001092B1001092B2000F900F900F900F9097
:10064000DF91CF9108951092AF001092B0001092F8
:10065000B1001092B2001092B3001092B400109248
:10066000B5001092B6001092AB001092AC00109240
:10067000AD001092AE000895CF93DF93CDB7DEB7F3
:1006800028970FB6F894DEBF0FBECDBF20E030E054
:1006900048EC52E46091AF007091B0008091B100DD
:1006A0009091B200E8D387FFCEDFB9DE6D837E8301
:1006B0008F8398872D813E81032E000C440B550BB0
:1006C0002D833E834F835887CA01B90148D36D8378
:1006D0007E838F8398872091B3003091B40040913E
:1006E000B5005091B6003BD269837A838B839C839B
:1006F00003D369837A838B839C836A3F71050CF0F3
:1007000041C09B01770F440B550B29833A834B83E0
:100710005C83CA01B90123D369837A838B839C8369
:100720002091AB003091AC004091AD005091AE00F3
:1007300017D269837A838B839C83DC01CB018093FE
:10074000AB009093AC00A093AD00B093AE002091AD
:10075000B7003091B8004091B9005091BA00CD0176
:1007600063D269837A838B839C8320E030E048ECFA
:1007700052E485D36093AF007093B0008093B100D2
:100780009093B2002D813E814F8158852093B30014
:100790003093B4004093B5005093B6006091AF0021
:1007A0007091B0008091B1009091B200A5D2CB01C0
:1007B00028960FB6F894DEBF0FBECDBFDF91CF9164
:1007C0000895EF92FF920F931F93CF93DF938B01C6
:1007D000EA0179011092BE001092BD001092BC0097
:1007E00021E02093BB00CCDDC801E5DCCE01B9DC03
:1007F0006BEB70E08CEB90E02EDC6BEB70E0C801F3
:1008000017DD6EEB70E0CE018FD08BEB90E01BD04C
:100810006BEB70E08CEB90E030DD8EEB90E0DFD0A6
:10082000C701DF91CF911F910F91FF90EF90C5CE3F
:100830002DDD23DC02DD7FC01092BD001092BC00D4
:100840001092BB0008959093C0008093BF0008955C
:10085000E091BF00F091C0008081882381F07894FE
:100860008BB780628BBFAC9A85B7877E806185BF6E
:1008700085B7806285BF889585B78F7D85BF0895D0
:100880008F938FB78F938BB78F7D8BBFAC988F91E2
:100890008FBF8F911895CF93DF93C091C600D091F1
:1008A000C7007CDC8883E091C600F091C70080819E
:1008B000811102C01092C100DF91CF910895CF93B2
:1008C000DF9300D000D0CDB7DEB760E082EC90E0DF
:1008D000BCD069837A838B839C83E091C600F091BE
:1008E000C70089819A81C29748F481E080830F9084
:1008F0000F900F900F90DF91CF91089581E080834A
:1009000082E08093C100F3CF49DCE091C600F09112
:10091000C700882339F081E080838093C10082EC96
:1009200090E0E8C0108208957093C7006093C600FD
:100930001092C10016CCE091C100F0E0EE0FFF1F55
:10094000EC57FF4F0190F081E02D0994CF93DF9396
:1009500000D000D0CDB7DEB761E08CEC90E075D070
:1009600069837A838B839C8365307105810591054A
:1009700070F082E08093C9001092C8008CEC90E087
:100980000F900F900F900F90DF91CF91B3C0E09137
:10099000CA00F091CB008081811102C01092C80082
:1009A0000F900F900F900F90DF91CF910895E091ED
:1009B000CA00F091CB008081882371F08091C9003A
:1009C000811107C081E08093C90081E08093C80055
:1009D00008951092C900F9CF8CEC90E08BC0109272
:1009E000C8009093CB008093CA001092C9001ED01B
:1009F0006093CC007093CD008093CE009093CF0095
:100A000008958091C900823019F481E08093C90073
:100A1000E091C800F0E0EE0FFF1FE059FF4F01909A
:100A2000F081E02D09958091C9000895CF93DF935F
:100A300000D000D0CDB7DEB714DDF1DC0F900F9001
:100A40000F900F90DF91CF9108950F931F93CF9345
:100A5000DF9300D000D00F92CDB7DEB78C016D834D
:100A6000DEDC69837A838B839C83F80180819181AA
:100A7000A281B38129813A814B815C81281B390B8A
:100A80004A0B5B0B29833A834B835C833D81332381
:100A9000D1F069817A818B819C815FD169837A836E
:100AA0008B839C834D814130E1F420E030E04AE7C4
:100AB00054E4BAD069837A838B839C8322D169837F
:100AC0007A838B839C8369817A818B819C810F904F
:100AD0000F900F900F900F90DF91CF911F910F917A
:100AE000089520E030E64AE657E469817A818B81F7
:100AF0009C81DFCFCF93DF93EC0191DC6883798316
:100B00008A839B83DF91CF9108950024552704C0E9
:100B1000080E591F880F991F009729F07695679541
:100B2000B8F37105B9F7802D952F0895EE27FF27AB
:100B3000AA27BB2708C0A20FB31FE41FF51F220F6F
:100B4000331F441F551F969587957795679598F3A2
:100B50007040A9F7009799F7BD01CF01089550584B
:100B6000BB27AA270ED04DC13ED130F043D120F093
:100B700031F49F3F11F41EF433C10EF4E095E7FB0E
:100B800029C1E92F4FD180F3BA1762077307840791
:100B9000950718F071F49EF567C10EF4E0950B2EE1
:100BA000BA2FA02D0B01B90190010C01CA01A001BF
:100BB0001124FF27591B99F0593F50F4503E68F11A
:100BC0001A16F040A22F232F342F4427585FF3CF5B
:100BD000469537952795A795F0405395C9F77EF42C
:100BE0001F16BA0B620B730B840BBAF09150A1F075
:100BF000FF0FBB1F661F771F881FC2F70EC0BA0FFB
:100C0000621F731F841F48F4879577956795B79582
:100C1000F7959E3F08F0B3CF9395880F08F099277A
:100C2000EE0F9795879508950CD0EBC0E3D040F078
:100C3000DAD030F021F45F3F19F0CCC0511115C16A
:100C4000CFC0F0D098F39923C9F35523B1F3951B86
:100C5000550BBB27AA2762177307840738F09F5FDD
:100C60005F4F220F331F441FAA1FA9F333D00E2E4C
:100C70003AF0E0E830D091505040E695001CCAF7B9
:100C800029D0FE2F27D0660F771F881FBB1F26177E
:100C900037074807AB07B0E809F0BB0B802DBF0151
:100CA000FF2793585F4F2AF09E3F510568F092C08E
:100CB000DCC05F3FECF3983EDCF386957795679553
:100CC000B795F7959F5FC9F7880F911D9695879502
:100CD00097F90895E1E0660F771F881FBB1F621721
:100CE00073078407BA0720F0621B730B840BBA0BDF
:100CF000EE1F88F7E095089504D06894B111B5C04F
:100D0000089598D088F09F5790F0B92F9927B75140
:100D1000A0F0D1F0660F771F881F991F1AF0BA95BF
:100D2000C9F712C0B13081F09FD0B1E008959CC0E6
:100D3000672F782F8827B85F39F0B93FCCF38695B5
:100D400077956795B395D9F73EF490958095709512
:100D500061957F4F8F4F9F4F0895E89409C097FB8F
:100D60003EF490958095709561957F4F8F4F9F4F82
:100D70009923A9F0F92F96E9BB279395F6958795C6
:100D800077956795B795F111F8CFFAF4BB0F11F489
:100D900060FF1BC06F5F7F4F8F4F9F4F16C0882330
:100DA00011F096E911C0772321F09EE8872F762F66
:100DB00005C0662371F096E8862F70E060E02AF0A7
:100DC0009A95660F771F881FDAF7880F9695879593
:100DD00097F9089597F99F6780E870E060E00895BB
:100DE0009FEF80EC089500240A9416161706180643
:100DF0000906089500240A9412161306140605061F
:100E00000895092E0394000C11F4882352F0BB0FAF
:100E100040F4BF2B11F460FF04C06F5F7F4F8F4F12
:100E20009F4F089557FD9058440F551F59F05F3F4D
:100E300071F04795880F97FB991F61F09F3F79F0FC
:100E400087950895121613061406551FF2CF46957E
:100E5000F1DF08C0161617061806991FF1CF869500
:100E60007105610508940895E894BB2766277727E4
:100E7000CB0197F908956ED008F48FEF08950AD04A
:100E8000C0CFB1DF28F0B6DF18F0952309F0A2CF6C
:100E9000A7CFEBCFC7DFA8F39923D9F35523C9F325
:100EA000950F50E0551FAA27EE27FF27BB270024E8
:100EB0000894679520F4E20FF31FB41F0A1E220F57
:100EC000331F441FAA1F6695A9F7779530F4F30FD7
:100ED000B41F0A1E121E08F46395330F441FAA1F85
:100EE000221F769599F7879520F4B40F0A1E121EDB
:100EF000631F440FAA1F221F331F8695A9F7862F51
:100F0000712D602D11249F5750408AF0E1F0882305
:100F10004AF0EE0FFF1FBB1F661F771F881F9150FF
:100F20005040A9F79E3F510570F054CF9ECF5F3FD0
:100F3000ECF3983EDCF3869577956795B795F79532
:100F4000E7959F5FC1F7FE2B880F911D96958795BA
:100F500097F90895990F0008550FAA0BE0E8FEEFE6
:100F600016161706E807F907C0F012161306E4076D
:100F7000F50798F0621B730B840B950B39F40A2666
:100F800061F0232B242B252B21F408950A2609F444
:100F9000A140A6958FEF811D811D0895F894FFCF84
:100FA000FFFF03000400FFFF000001000200FFFF3D
:100FB000D704A604FFFF03000400FFFF00000100A8
:0A0FC0000200FFFF84045F044B04ED
:00000001FF
